:020000020000FC
:040000000C947200EA
:1000E4000FEF0DBF01E20EBF00EF00930A010FEF07
:1000F40007B908B90FEF00BB01B9002701BB02B96A
:1001040008E319D032D04DD008E315D02ED040D01A
:1001140008E311D02AD008E30ED027D008E00BD092
:1001240024D001E008D021D006E005D01ED00FE095
:1001340002D01BD091C101BB0000169A0000000040
:1001440000001698000000000000089501BB179AF3
:10015400000000000000169A00000000000016983D
:10016400000000000000179808950F93002700BBBB
:1001740001BB159A0000169A0000000000000FB1A0
:10018400169807FDF7CF15980FEF00BB0F91089550
:100194008F939F939FE08CE90197F1F79F918F9143
:1001A4000895F6DFF5DFF4DFF3DFF2DF0895F0DF23
:1001B400EFDFEEDFEDDFECDFEBDFEADFE9DFE8DFE7
:1001C400E7DFE6DFE5DFE4DFE3DFE2DFE1DFE0DF17
:1001D400DFDFDEDFDDDFDCDFDBDFDADFD9DFD8DF47
:1001E4000895EF93FF930F93CF93DF9301E0A3DF81
:1001F400BCDF06E0A0DFB9DF0FE09DDFB6DF0591CD
:10020400013249F0003221F400EC95DFAEDFF7CF84
:100214009DDFABDFF4CFDF91CF910F91FF91EF9191
:1002240008950F933F934F935F936F937F938F93AF
:10023400EF93FF93AF93BF93CF93DF934427552757
:10024400E0E0F2E0319140818894331F441F632F32
:10025400742F8894331F441F8894331F441F360F10
:10026400471F80E0300F481FE0E0F2E03193408305
:10027400DF91CF91BF91AF91FF91EF918F917F91DA
:100284006F915F914F913F910F9108950F933F9319
:100294004F931F932F935F936F937F93EF93FF93EA
:1002A40031914081E4E0F2E047FF09C03095409588
:1002B4000DE24CDF5ADF01E0300F00E0400F60E157
:1002C40057E217D068EE53E014D064E650E011D042
:1002D4006AE050E00ED061E050E00BD0FF91EF9166
:1002E4007F916F915F912F911F914F913F910F914A
:1002F400089577273617450724F0361B450B739569
:10030400F9CF71930895EF93FF930F934F937F93D6
:100314001F93E2E0F2E0BADFE4E0F2E0772710E3D3
:10032400753031F00191010F11DF1FDF7395F8CFA4
:100334001F917F914F910F91FF91EF910895EF934A
:10034400FF930F93CF93DF9301E0F5DE0EDF06E01A
:10035400F2DE0BDF0FE0EFDE08DF0591013249F03A
:10036400003221F400ECE7DE00DFF7CFEFDEFDDE44
:10037400F4CFDF91CF910F91FF91EF9108950F93F7
:100384004F937F938F931F932F93EF93FF93AF9389
:10039400BF93A8E0B2E040E04C93E6E0F2E00081D5
:1003A4000130A9F0023051F1E0E0F2E0A2E0B2E065
:1003B4000191408120E010E802174107A1F10D935B
:1003C4004C93C0E0D2E000270993088330C0E0E0FA
:1003D400F2E0A2E0B2E0019140817D918C91701B2A
:1003E400840B0BF1E0E0F2E0A2E0B2E0C0E0D2E086
:1003F4000027099308837D938C9319C0E0E0F2E011
:10040400A2E0B2E0019140817D918C91700F841F34
:1004140053F0A2E0B2E0C0E0D2E0002709930883E1
:100424007D938C9304C0A8E0B2E041E04C93BF916B
:10043400AF91FF91EF912F911F918F917F914F91E8
:100444000F91089501E077DE90DE06E074DE8DDE24
:100454000FE071DE8ADE089564E154E1772788278E
:10046400C6E0D2E0002709930883C0E0D2E0002769
:1004740009930883C2E0D2E00027099308834F560A
:100484004552464C4F57206F636375726564212053
:10049400496E636F727265637420657870726573F8
:1004A40073696F6E21203FEE222730930B010FEF0B
:1004B4000A95F1F7009109010F700F3061F031E0F6
:1004C4001127402F432319F40DD00C945502139592
:1004D400330F0C946302233031F30894331F2395B4
:1004E4000C945702511739F4621729F4739550DEAE
:1004F4007D3709F008957727622F512F233069F053
:10050400133079F1012F000F010F020F039589DEDB
:1005140040E3040F44270C94CC02E6E0F2E02FDF22
:10052400A8E0B2E04C9141308CF5103001E000833A
:1005340041F0113002E0008339F0123041F0133001
:1005440061F00DE20C94CC020BE20C94CC020DE3AE
:10055400FDDD0BDED8DE0C94DD0204E473DF0C94C5
:10056400DD02203041F0213061F003E2E4E9F4E0FF
:1005740038DE0C94DD020AE2E4E9F4E032DE0C94A5
:10058400DD0200274EDE00E30C94DD02E2E8F4E035
:10059400D6DE11C0803160F0402F01E0CCDDE5DD16
:1005A40006E0C9DDE2DD0FE0C6DDDFDD8827042FCC
:0A05B400CDDDDBDD8395FBDD08954E
:00000001FF
