:020000020000FC
:100000000C9430000C9473000C9474000C947500E4
:10005C000C948900F89471E27EBF7FEF7DBF70E055
:10006C0074BD72E075BD71E070936E0077277FEF01
:10007C0070BB71B9772771BB72B908E375D08ED09C
:10008C00A9D008E371D08AD09CD008E36DD086D07B
:10009C0008E36AD083D008E067D080D001E064D058
:1000AC007DD006E061D07AD00EE05ED077D0C0E093
:1000BC00D2E0772779937883C2E0D2E077277993DF
:1000CC00788377277AB97FEF7BB97AE270936900EE
:1000DC007DB377607DBB7894FFCF189518957F938F
:1000EC007FB77F938F939F9380910202909103022D
:1000FC00019680930202909303029F918F917F91BE
:10010C007FBF7F9118957F937FB77F93DF93CF93BA
:10011C009F938F937F93809100029091010201969F
:10012C00863173E0970739F4C0E0D2E077277993F2
:10013C00788306C010C080930002909301020BC01C
:10014C0001E012D02BD0E2E0F2E080D0C2E0D2E0AD
:10015C007727799378837F918F919F91CF91DF91BE
:10016C007F917FBF7F91189501BB0000169A00000C
:10017C00000000001698000000000000089501BB6C
:10018C00179A000000000000169A00000000000002
:10019C001698000000000000179808950F93002790
:1001AC0000BB01BB159A0000169A0000000000006D
:1001BC000FB1169807FDF7CF15980FEF00BB0F91F5
:1001CC0008958F939F939FE08CE90197F1F79F918E
:1001DC008F910895F6DFF5DFF4DFF3DFF2DF08959A
:1001EC007F931F932F933F934F935F936F93EF9353
:1001FC00FF93CF93DF93E2E0F2E011912081C4E012
:10020C00D2E050E147E218D058EE43E015D054E666
:10021C0040E012D05AE040E00FD051E040E00CD06A
:10022C00DF91CF91FF91EF916F915F914F913F9142
:10023C002F911F917F91089566271517240724F09D
:10024C00151B240B6395F9CF699308957F931F9326
:10025C002F933F93EF93FF93E2E0F2E021913081F3
:10026C007F931F938894221F331F722F132F889410
:10027C00221F331F8894221F331F270F311F1F91FA
:10028C007F91889437952795889437952795308357
:10029C002293A6DF332710E3E4E0F2E0353049F097
:1002AC0033957191710F7F93072F69DF77DF7F9102
:1002BC00F5CFFF91EF913F912F911F917F91089571
:00000001FF
