:020000020000FC
:0C0000000C9433000C9432000C9432007D
:10005C000C946D000C943200189511E21EBF1FEF2A
:10006C001DBF0FEF00BB01B9002701BB02B908E3AC
:10007C0093D0ACD0C7D008E38FD0A8D0BAD008E3C7
:10008C008BD0A4D008E388D0A1D008E085D09ED036
:10009C0001E082D09BD006E07FD098D00EE07CD0DF
:1000AC0095D000E30027002F80E3080F80D08ED07E
:1000BC0000E30027002F80E3080F79D087D00AE3F4
:1000CC000027002F80E3080F72D080D053C01FB7D9
:1000DC001F93DF93CF939F938F937F930F93809175
:1000EC00000290910102019684381EE1910731F4CF
:1000FC00C0E0D2E011271993188305C08093000249
:10010C00909301022EC001E047D060D033953A3075
:10011C0058F033274395463038F0442753955A30DE
:10012C0018F05527552763950027062F80E3080FF5
:10013C003ED04CD00027052F80E3080F38D046D096
:10014C007AE30027072F33D041D00027042F80E318
:10015C00080F2DD03BD00027032F80E3080F27D0AA
:10016C0035D00F917F918F919F91CF91DF911F91FE
:10017C001FBF18956627552744273327C0E0D2E0C8
:10018C0011271993188310E014BD12E015BD11E06E
:10019C0010936E007894FFCF01BB0000169A0000FC
:1001AC00000000001698000000000000089501BB3C
:1001BC00179A000000000000169A000000000000D2
:1001CC001698000000000000179808950F93002760
:1001DC0000BB01BB159A0000169A0000000000003D
:1001EC000FB1169807FDF7CF15980FEF00BB0F91C5
:1001FC0008958F939F939FE08CE90197F1F79F915E
:10020C008F910895F6DFF5DFF4DFF3DFF2DF089569
:00000001FF
