:020000020000FC
:040000000C947200EA
:1000E4000FEF0DBF01E20EBF00EF00930A010FEF07
:1000F40007B908B90FEF00BB01B9002701BB02B96A
:1001040008E377D090D0ABD008E373D08CD09ED0E6
:1001140008E36FD088D008E36CD085D008E069D0BC
:1001240082D001E066D07FD006E063D07CD00FE0BF
:1001340060D079D064E154E1772788273FEE222705
:1001440030930B010FEF0A95F1F7009109010F703D
:100154000F3061F031E01127402F432319F40DD003
:100164000C94A0001395330F0C94AE00233031F39C
:100174000894331F23950C94A200511739F4621785
:1001840029F4739563D0743609F008957727622FA4
:10019400512F233061F0133071F0012F000F010F44
:1001A400020F40E30395040F44270C94E80001E494
:1001B400010F0C94E800203029F0213031F003E2E3
:1001C4000C94E8000AE20C94E80000E34ED080317D
:1001D40060F0402F01E00DD026D006E00AD023D0F5
:1001E4000FE007D020D08827042F0ED01CD0839591
:1001F400089501BB0000169A000000000000169844
:10020400000000000000089501BB179A00000000E0
:100214000000169A0000000000001698000000007C
:100224000000179808950F93002700BB01BB159A8F
:100234000000169A0000000000000FB1169807FD98
:10024400F7CF15980FEF00BB0F9108958F939F93ED
:100254009FE08CE90197F1F79F918F910895F6DF64
:10026400F5DFF4DFF3DFF2DF0895F0DFEFDFEEDF39
:10027400EDDFECDFEBDFEADFE9DFE8DFE7DFE6DF36
:10028400E5DFE4DFE3DFE2DFE1DFE0DFDFDFDEDF66
:0E029400DDDFDCDFDBDFDADFD9DFD8DF089566
:00000001FF
