:020000020000FC
:040000000C947200EA
:1000E4000FEF0DBF01E20EBF00EF00930A010FEF07
:1000F40007B908B90FEF00BB01B9002701BB02B96A
:1001040008E397D0B0D0CBD008E393D0ACD0BED026
:1001140008E38FD0A8D008E38CD0A5D008E089D01C
:10012400A2D001E086D09FD006E083D09CD00FE01F
:1001340080D099D064E154E17727882799273FEE4E
:10014400222730930B010FEF0A95F1F70091090173
:100154000F700F3061F031E01127402F432319F461
:100164000DD00C94A1001395330F0C94AF002330E1
:1001740031F30894331F23950C94A300511791F481
:10018400621781F49395739581D0743609F00895BC
:10019400923044F4511731F4621721F4739576D0F8
:1001A4007233B0F37727622F512F233061F013306D
:1001B40071F0012F000F010F020F40E30395040FAC
:1001C40044270C94F40001E4090F0C94F40020304B
:1001D40029F0213031F003E20C94F4000AE20C948B
:1001E400F40000E362D0803160F0402F01E021D0C0
:1001F4003AD006E01ED037D00FE01BD034D0882789
:10020400042F913031F0923054F41ED02CD08395C9
:100214000BC041E0040F18D026D0839505C042E0FE
:10022400040F12D020D0839500E103D01CD099276D
:10023400089501BB0000169A000000000000169803
:10024400000000000000089501BB179A00000000A0
:100254000000169A0000000000001698000000003C
:100264000000179808950F93002700BB01BB159A4F
:100274000000169A0000000000000FB1169807FD58
:10028400F7CF15980FEF00BB0F9108958F939F93AD
:100294009FE08CE90197F1F79F918F910895F6DF24
:1002A400F5DFF4DFF3DFF2DF0895F0DFEFDFEEDFF9
:1002B400EDDFECDFEBDFEADFE9DFE8DFE7DFE6DFF6
:1002C400E5DFE4DFE3DFE2DFE1DFE0DFDFDFDEDF26
:0E02D400DDDFDCDFDBDFDADFD9DFD8DF089526
:00000001FF
