:020000020000FC
:100000000C9406000C941A000C942B000FEF0DBFFB
:1000100001E20EBF0FEF07B90FE008B900270AB9D8
:100020000BB90AE0009369000DB303600DBB78942F
:100030000C943C000F930FB70F9308B10F3011F0E1
:10004000039502C000E000C008B90F910FBF0F91E7
:10005000E09A15D018950F930FB70F9308B10030A1
:1000600011F00A9502C00FE000C008B90F910FBF50
:100070000F91E19A04D0189500270395FECF8827A9
:0A008000992701969F3FC8F30895E9
:00000001FF
